:020000040800F2
:100000006007022021120008B12B0008F51100083A
:10001000F5110008F5110008F511000800000000B6
:100020000000000000000000000000002D0F00088C
:10003000F511000800000000D90E0008091B000897
:10004000D10F0008D10F0008D10F0008D10F000810
:10005000D10F0008D10F0008D10F0008D10F000800
:10006000D10F0008D10F0008D10F0008D10F0008F0
:10007000D10F0008D10F0008D10F0008D10F0008E0
:10008000D10F0008D10F0008D10F0008D10F0008D0
:10009000D10F0008D10F0008D10F0008D10F0008C0
:1000A000D10F0008D10F0008D10F0008D10F0008B0
:1000B000D10F0008D10F0008D10F0008D10F0008A0
:1000C000D10F0008D10F0008D10F0008D10F000890
:1000D000D10F0008D10F0008D10F0008D10F000880
:1000E000D10F0008D10F0008D10F0008D10F000870
:1000F000D10F0008D10F0008D10F0008D10F000860
:10010000D10F0008D10F0008D10F0008D10F00084F
:10011000D10F0008D10F0008D10F0008D10F00083F
:10012000D10F0008D10F0008D10F0008D10F00082F
:10013000D10F0008D10F0008D10F0008D10F00081F
:10014000D10F0008D10F0008D10F0008D10F00080F
:10015000D10F0008D10F0008D10F0008D10F0008FF
:10016000D10F0008D10F0008D10F0008D10F0008EF
:10017000D10F0008D10F0008D10F0008D10F0008DF
:10018000D10F0008D10F0008D10F0008D10F0008CF
:10019000D10F0008D10F0008D10F0008D10F0008BF
:1001A000D10F0008D10F0008D10F0008D10F0008AF
:1001B000D10F0008D10F0008D10F0008D10F00089F
:1001C000D10F0008D10F0008D10F0008D10F00088F
:1001D000D10F0008D10F0008D10F0008D10F00087F
:1001E000D10F0008D10F0008D10F0008D10F00086F
:0801F000D10F0008D10F000837
:1001F80053B94AB9002908BF00281CBF4FF0FF3186
:100208004FF0FF3000F00CB8ADF1080C6DE904CEEA
:1002180000F008F8DDF804E0DDE9022304B07047D7
:10022800704700BF2DE9F04F07468C460846099EE7
:1002380015463C461946002B40F0C6808242B2FA69
:1002480082F746D94FB1C7F1200E24FA0EFE00FA04
:1002580007F3BD404EEA030CBC404FEA15481FFAAD
:1002680085FEBCFBF8F9220C08FB19C309FB0EFA42
:1002780042EA03439A4528D9EB1809F1FF3004D222
:100288009A4502D9A9F102002B44A3EB0A03A4B2B0
:10029800B3FBF8F208FB123302FB0EFE44EA0344F8
:1002A800A64514D92C1902F1FF3303D2A64501D96A
:1002B800931E2C44A4EB0E0443EA00401EB1FC40FC
:1002C800002334607360BDE8F08F4846DDE71346CD
:1002D800F0E702B9FFDE87BB831A01214FEA154E0A
:1002E800AAB2B3FBFEFC200C0EFB1C330CFB02F87D
:1002F80040EA0343984563D9EB180CF1FF3004D268
:10030800984502D9ACF102002B44A3EB0803A4B230
:10031800B3FBFEFC0EFB1C330CFB02F244EA034465
:10032800A2424FD92C190CF1FF3304D2A24202D9B0
:10033800ACF102032C44A41ABEE7C7F1200C20FA42
:100348000CF800FA07F324FA0CFCBD404CEA03024F
:100358004FEA154EABB2B8FBFEFC110C0EFB1C802D
:100368000CFB03F941EA0040814504FA07F423D95C
:1003780028180CF1FF3104D2814502D9ACF10201F1
:100388002844A0EB090092B2B0FBFEFC0EFB1C0057
:100398000CFB03F842EA004398450FD9EB180CF11F
:1003A800FF3204D2984502D9ACF102022B44A3EBE8
:1003B800080342EA014191E76146E2E76246F6E74F
:1003C8006046A2E76346B6E7834205D90EB1C6E99F
:1003D80000700021084676E7B3FA83F181B98342B9
:1003E80001D3BA420AD8BC1A60EB030301209C4629
:1003F800002E68D0C6E9004C002164E70846F7E7FC
:10040800C1F1200C8B4022FA0CF41C4302FA01F5CE
:1004180000FA01F327FA0CF220FA0CFB4FEA144910
:100428001343BBFBF9F81FFA84FE09FB18BB1A0C2F
:1004380008FB0EFA42EA0B42924507FA01F73ED949
:10044800A21808F1FF3004D2924502D9A8F102009F
:100458002244A2EB0A029BB2B2FBF9F809FB18226C
:1004680008FB0EFE43EA024296452AD9A21808F173
:10047800FF3304D2964502D9A8F10203224443EA85
:100488000040A0FB0593A2EB0E029A42CE46984686
:1004980002D306D14F4504D2B9EB050E63EB04082D
:1004A800013886B1B7EB0E0362EB080707FA0CFCBC
:1004B800CB404CEA0303CF40C6E900379CE74046EF
:1004C800C7E74346DBE73146FDE6000008B51348B9
:1004D80002F028FE00B3114802F024FEE0B11048F3
:1004E80002F0BFFA002817DB0E4802F0BAFA00281B
:1004F80012DB01210A4802F098FA00280CDB0021DF
:10050800084802F092FA002806DB40F2DC5000218D
:10051800BDE8084002F0AEB808BD00BF803400084E
:10052800E8380008F0380008094808B502F091FAE0
:1005380000280BDB074802F08CFA002806DB40F2A3
:10054800DC500021BDE8084002F094B808BD00BFA7
:10055800E8380008F03800080B6801330B60014BDD
:100568001B68184700000220014B1860704700BF45
:100578000000022007B50B460021024603480191FE
:1005880001A900F005F803B05DF804FB6105000857
:100598002DE9F04F8B4691B092461C4600250290FB
:1005A8009AF8000008B9284660E325280AF10107EF
:1005B80007D05946029B98470028C0F25783013557
:1005C80012E2182200210AA802F010FB9AF8013062
:1005D800252B78D000221046964694461646394672
:1005E80017F8013B2B2B00F09D8000F29480202B04
:1005F80000F09B80232B00F09B802EB19DF830608B
:1006080046F004068DF83060BCF1000F05D09DF867
:10061800306046F008068DF83060BEF1000F05D056
:100628009DF8306046F010068DF8306028B19DF8CE
:10063800300040F020008DF830002AB19DF83020BD
:1006480042F040028DF830209DF8302002F044003E
:10065800442803D16FF386128DF830209DF830209E
:100668002A2B42F080028DF830207BD19DF8312072
:100678004B1C42F001028DF831201A782E2A9DF881
:1006880031200CBF0121002161F341028DF8312096
:1006980074D15A782A2A6AD0013300210A261846CA
:1006A80010F8012BA2F13007092F40F28E809DF837
:1006B80030200E91C2F3400040EAD17161F341024B
:1006C8008DF830205AE00AF102078DF833309DF892
:1006D8003130D90740F1498154F8049BB9F1000F32
:1006E80007DA9DF83020C9F1000942F004028DF8BC
:1006F80030205A0740F1428154F8048BB8F1000FBA
:1007080080F241819DF831306FF341038DF831302B
:100718004FF0FF3837E12D2B0CD0302B7FF46DAF25
:1007280001225CE74FF0010C59E74FF0010E56E744
:10073800012054E7012652E70CFB02023346303A07
:100748001E4616F8010BA0F13007092FF4D999427B
:1007580093D09DF830100D92D20F62F341018DF8BD
:1007680030108AE70B4600224FF00A0CE8E79DF8A4
:100778003120023342F004028DF831201F4617F869
:10078800012B6C2A41D025D8682A2BD06A2A46D05A
:100798004C2A4CD01F4617F8012B9DF83130782A87
:1007A8008DF8332000F2D980572A4DD8412A03D03A
:1007B800453A022A00F2D1809DF83230042262F3D1
:1007C80002038DF8323001239EE006FB0121034627
:1007D800303964E7742A26D07A2ADBD19DF8313083
:1007E80006220DE05A78682A9DF8312006D10121A9
:1007F80061F3C6029F1C8DF83120CCE71346022214
:1008080062F3C6038DF83130C5E75A786C2A9DF833
:10081800312001D10421EBE713460322F0E79DF8CC
:1008280031300522ECE79DF831300722E8E7BDF8C2
:10083800303023F4F04323F0020343F4804343F0C1
:100848000203ADF83030A6E7A2F15801202900F2E2
:10085800848001A050F821F02509000863090008E8
:1008680063090008630900086309000863090008B0
:10087800630900086309000863090008C107000844
:100888006309000825090008E5080008C1070008F1
:10089800C1070008C107000863090008E508000847
:1008A8006309000863090008630900086309000870
:1008B8002D090008250900084909000863090008EE
:1008C80063090008490900086309000825090008A8
:1008D8006309000863090008250900089DF832101B
:1008E800012003F0780360F30201402B8DF83210E9
:1008F80002BF9DF8301041F001018DF83010632AD5
:1009080031D1003B18BF01239DF83020C2F34001CC
:100918000B4363F341028DF83020D8E69DF832107E
:100928000220DEE703F078039DF832200321A3F1CB
:10093800400061F3020243428DF832204341E3E76D
:100948009DF83220032113F0780F61F3020214BFDF
:10095800012300238DF83220D6E79DF8303043F08C
:1009680001038DF830300023CEE79DF93020002AAE
:10097800B4BFDDF834904FF0FF39BAE69B077FF536
:10098800C7AEDDF8388000239DF83110CDE90D336E
:100998009DF83230C1F3C30103F00703012B38D1AE
:1009A800CB1E042B22D8DFE803F00309092121001C
:1009B80054F8043BDA17CDE90A3206E0073424F08C
:1009C8000704F4E80223CDE90A239DF8303013F038
:1009D800030656D03B4652465946029802F0C1F8E3
:1009E8000028C0F243810544BA46D9E554F8043BCF
:1009F80001294FEAE372CDE90A3205D19DF8283082
:100A08000A9300230B93E0E70229DED1BDF92830D1
:100A1800D0E7022B23D1CB1E042B13D8DFE803F039
:100A2800030A0A12120022680023201D0A920B935F
:100A38000446CAE7E01D20F00700F0E80223CDE9EC
:100A48000A23F5E754F8043B01290A934FF0000301
:100A58000B93D3D00229B8D1BDF82830D0E7042BA6
:100A680009D1E31D23F0070303F10804D3E90023A8
:100A7800CDE90A23A9E7032B04BF54F8043B0A93E2
:100A8800A3E79DF833007828AED8622822D8252815
:100A98003FF48FAD5828A7D10DF126030CAA009377
:100AA80004ABDDE90A0102F016F88246B8F1000F3E
:100AB8000DF126000CDB9DF83020A0EB0A036FF344
:100AC800861298458DF8302002D9A8EB03030D93C0
:100AD80080463DE06338152886D801A252F820F0F8
:100AE800690B0008CD0B0008F1090008F10900089E
:100AF800F1090008F1090008CD0B0008F109000808
:100B0800F1090008F1090008F1090008290C00089A
:100B1800F70B0008FB0B0008F1090008F1090008B1
:100B2800410B0008F1090008F70B0008F10900085B
:100B3800F1090008F70B0008B8F1000FDDF828A04C
:100B48000ADB4146504602F03DF80AEB0008002651
:100B5800BAF1000F0CD147E7504602F02CF8F4E741
:100B68000A9B00260DF1100A0DF111088DF81030BE
:100B7800A8EB0A0306B101339DF83220D00669D5E7
:100B8800023352060D9948BF0E9A0B4448BF9B1872
:100B9800B9F1000F77DD9DF83020A9EB0309C2F306
:100BA8008003039353076ED4500662D546B1594665
:100BB8003046029B9847002858DB039B01351E46A8
:100BC800302357E01E0710D413F0100618BF202654
:100BD800DDE90A23002BBFF65FAF52424FF02D0626
:100BE80063EB4303CDE90A2356E72B26F0E70026FB
:100BF80052E70A9840B30DF126030CAA00210026FB
:100C0800009304AB01F067FFBDF83230824603F071
:100C1800EF0343F4F04343F01003ADF8323045E7F7
:100C28000A9B07293FF6E0AEDFE801F00C04060C4A
:100C380008080C0C1D70D7E61D80D5E6EA17C3E935
:100C48000052D1E61D60CFE6DFF8C4A006460AF1DF
:100C580005088DE7110748BF013392E7184603934B
:100C68005946029B98470028039B04DA11B0BDE857
:100C7800F08F20234D444A46A5EB090109F1FF39BD
:100C8800002AEBDC0D4636B159463046029B9847A0
:100C98000028EBDB01359DF83230D90601D41A075C
:100CA80006D559463020029B98470028DEDB0135DF
:100CB8009DF83230DB0607D559469DF83300029B74
:100CC80098470028D2DB01350D9E2E44731B002B5C
:100CD80016DC434652465946029801F042FF002866
:100CE800C4DB0544A944A9EB0503002B7FF77CAEC0
:100CF80059462020029B98470028B7DB0135F2E7C8
:100D080059463020029B98470028AFDB0135DDE7C4
:100D1800FA3A00082C4A136843F40073F0B51360DC
:100D28004FF01003EFF3118083F31288BFF36F8F36
:100D3800264B5A6912F4003211D1BFF34F8FBFF31B
:100D48006F8FC3F85022BFF34F8FBFF36F8F5A696D
:100D580042F400325A61BFF34F8FBFF36F8F1B4AC3
:100D68005369DB0327D4536913F4803323D1C2F8C2
:100D78008430BFF34F8FD2F8803043F6E075C3F369
:100D8800C904C3F34E335B0103EA0507214647EA6A
:100D980081760139C2F86062F9D2203B13F1200F45
:100DA800F2D1BFF34F8F536943F480335361BFF3DC
:100DB8004F8FBFF36F8F80F31188BFF36F8F044B92
:100DC8000020044A1A60F0BD003C024000ED00E03B
:100DD800300002200024F400014910220A60704704
:100DE80010ED00E072B6404080F31188BFF36F8FBA
:100DF800BFF34F8F30BF62B6BFF36F8F704700BF2E
:100E080043B2002B08DB012200F01F005B0902FA45
:100E180000F0024A42F82300704700BF00E100E0FA
:100E280043B20131002B4FEA0111C9B206DB03F1CD
:100E3800604303F5614383F80013704700F00F0027
:100E4800014B1954704700BF14ED00E030BFFFF7A5
:100E5800FDBF00BF0F4A08B522F07F020E4B9A6013
:100E6800BFF34F8FBFF36F8FD3F8882022F470023F
:100E7800C3F88820EFF3148323F0040383F3148862
:100E8800BFF36F8F01F07CF801F064FC00F0B8F953
:100E980001F0C4F80000000800ED00E0094A0A4922
:100EA800936809685867996708494B6843F0805305
:100EB8004B60002383F31188BFF36F8F9368986F9B
:100EC800704700BF10030220F03A000800ED00E070
:100ED80012498A684FF030001044EFF3098C80E81B
:100EE800F01F102080F31288BFF36F8F0C4F4FF064
:100EF80000668A698A603E60506F0023536780F3FA
:100F0800118804B5104600F0BBF9BDE8044002F1B1
:100F1800300090E8F01F8CF3098870471003022016
:100F280004ED00E01EF0040F0CBFEFF30880EFF3B0
:100F38000980816911F8021C0229FFD001B501F06E
:100F48002BFE01BD42F8203C203A009B0749536024
:100F5800019B21F001019360029B9161D3604FF0E6
:100F68008073D3610023026543677047CB2A00086A
:100F7800094A0346906870B113F1160F406E05D008
:100F8800A0F120029A4205D8834203D2814228BFA9
:100F980000207047002070471003022008B5094B55
:100FA8000D461446986000F06BF9204685F30988D1
:100FB800002163B681F31188BFF36F8F00220023ED
:100FC80001F07FFD1003022001B5EFF30580A0F1C9
:100FD80010004FEAC0000449014409C99847BDE818
:100FE8000140024908470000E0340008F90F0008F2
:100FF800044B99689869884203D003494FF080529E
:101008000A6070471003022004ED00E038B5194B60
:10101800144605469A6A9A6A9A6A900719D5586BCF
:101028009A6A120615D519B19A6A22F080029A6254
:101038009A6A9A6A9A6AD1060ED49B6A9A070BD45E
:1010480000200C4A936A43F0FF0393620023237045
:1010580038BD6FF01500EBE7064B5B681B05EFD555
:101068002946FFF785FF0028EAD080F30988022087
:10107800E7E700BF00ED00E00D4B9A6A9A6A9A6AAA
:10108800920508D59A6B9A6A120404D518B19A6A1F
:1010980022F400429A62064B9A6A9A6AD20500D4F0
:1010A8009A6A9A6A002042F47F429A6208707047EE
:1010B80000ED00E0484B5B6870B5C3F308038AB0E5
:1010C8000D46002686F31188BFF36F8F02F07F412B
:1010D800B1F17F4F11D102F00C0108290DD0110791
:1010E80001D4054601260022033B8DF80720032B77
:1010F8006BD8DFE803F00455595D3546F3E7364B06
:10110800DC6A14F0020460D1DA6A002A15DBDA6AB4
:10111800520012D5AA6932F8021C4DF602729142A9
:101128000AD093F828200AB30DF1070201212846B6
:10113800FFF76CFF044600E02C689DF807309BB968
:101148002022294602A801F046FD099B002E3ED028
:10115800C3F3080222B96FEA53236FEA43230993C2
:1011680002A9204601F016FD0AB070BD93F82920A7
:101178002AB10DF107010120FFF77EFFDAE75A8D4A
:1011880092B2002AD9D09A6A9A6A9A6A9A6A9A6A2C
:101198009A6A9A6A6FEA02426FEA12429A62CCE746
:1011A8000DF107020021C2E70DF107010020E3E776
:1011B800094B9A6A9A6A9A6A9A6A9A6A9A6A9A6AB7
:1011C8006FEA02426FEA12429A620024B5E723F4FA
:1011D800FF7323F00103C2E700ED00E0024A536900
:1011E80043F010035361704700ED00E0EFF308800F
:1011F800EFF3098101B57246FFF75CFF01BD00BF3F
:10120800002304481021C21801336E2B82F8001302
:10121800F9D1704700E100E0102080F311880848F8
:101228004FF40261401880F30988EFF3148002211B
:10123800084380F31488BFF36F8FFFF70BFE00009D
:10124800E0080220064B9B68834207D1EFF3058331
:1012580023B1044A536843F08053536001F028BA1D
:101268001003022000ED00E0024B0121024A03486E
:1012780000F06EB80000082000000220F8380008CE
:10128800426E2021044B203A18461A60034AC3E9EB
:101298000112012100F066B88001022000000B1540
:1012A800F0B500261E4F8E4201DB1046F0BD4468A3
:1012B8009CB353B104F1FF3C14EA0C0F18D11F2C56
:1012C80016D905681CEA050F12D1202CD2B2056880
:1012D800D0F808C00FD9B4F1004F0ED8013CB4FAC9
:1012E80084F4C4F11F046400072A4CEA040406D9F4
:1012F8006FF01502D9E70824F6E73E24F4E725F055
:101308001F05C7F8982044F001041543013245F041
:101318001005C7F89C50C7F8A04001360C30C2E74A
:1013280000ED00E0044B0522C3F89420BFF34F8F73
:10133800BFF36F8F704700BF00ED00E0BFF35F8F12
:10134800024B0022C3F89420704700BF00ED00E074
:1013580010B5034C01232278FFF7A2FF207010BDBF
:1013680044030220094A08B500231278FFF798FFC2
:1013780010F1160F02D0064A072800DD08BDC2F892
:1013880098000130C2F8A030F6E700BF44030220FD
:1013980000ED00E014490868082810B521D8FFF7C7
:1013A800CDFF124C49680022904201F10C0105D191
:1013B8000F4B18700020FFF7B5FF10BDC4F8982038
:1013C80051F80C3C23F01F031343013243F0100380
:1013D800C4F89C3051F8043C43F00103C4F8A03031
:1013E800E2E74FF0FF30E8E70439000800ED00E0DD
:1013F80044030220014B1860704700BF040002201C
:101408002DE9F84304460E4615464FF001080B4FE8
:1014180002F10409B44201DBBDE8F88308FA04F3D9
:101428007A6933EA020207D17B6155F834301BB17F
:1014380059F83410204698470134EBE7003C014046
:10144800044A0123116883400B431360024B18566A
:10145800FFF7D6BC003C01402D3B00081F2807DCE5
:10146800044901220B6802FA00F023EA0000086030
:10147800704700BF003C014003290FD8DFE801F0A6
:10148800020F1723154B0122996802FA00F021EA8E
:1014980000019960DA6822EA0000D86070470123E9
:1014A80003FA00F00D4B9A6802439A60F2E70123B1
:1014B80003FA00F0094BDA680243DA609A6822EA14
:1014C800000098607047012303FA00F0034B9A6804
:1014D80002439A60DA681043DFE700BF003C01402E
:1014E800074B10B5044653F8300028B943F83410B8
:1014F80003EBC4035A6010BD6FF00F00FBE700BF99
:101508008C010220034B002243F8302003EBC00378
:101518005A6070478C0102200B6886B0062B39D8B8
:10152800DFE803F00410242E38381A001B4A4B68F1
:10153800116B19431163126B13400193019B002037
:1015480006B07047154A4B68516B19435163526B8B
:1015580013400293029BF2E7104A4B68916B1943C0
:101568009163926B13400393039BE8E70B4A4B6824
:10157800116C19431164126C13400493049BDEE749
:10158800064A4B68516C19435164526C13400593D9
:10159800059BD4E76FF08500D2E700BF0038024012
:1015A8000B68062B29D8DFE803F0040C1A21282839
:1015B8001300134A4968136B23EA010313630020DD
:1015C80070470F4A4968536B23EA01035363F6E7F0
:1015D8000B4A4968936B23EA01039363EFE7084AD0
:1015E8004968136C23EA01031364E8E7044A49686D
:1015F800536C23EA01035364E1E76FF085007047F9
:1016080000380240084B09681B68062909D8DFE83A
:1016180001F005050405080805005B0800201360B3
:1016280070476FF0850070473000022000234FF4A8
:10163800805230B587B0CDE90032029300F038F817
:1016480003A801F05AFB184B1A68910706D41A68C8
:1016580042F001021A601A689207FCD5124CA3687E
:1016680023F00303A360A36823F0F003A360A56835
:1016780015F00C05FBD1236803AA01210B4823F0C0
:1016880080732360636823F0706343F04073636082
:101698006B4600F0F7FB236823F00103236001F099
:1016A80033FB284607B030BD0038024000127A00EC
:1016B800064B82B01A6C42F080521A641B6C03F01D
:1016C80080530193019B02B0704700BF003802406D
:1016D80008B50848084B186001F024FD38B10748E0
:1016E800FFF788FE0548FEF73FFF002008BD6FF0B2
:1016F8001200FBE7C83400084C0202200917000852
:101708000A2838B50446074D04D1286883680D2196
:101718005B68984728688368E1B25B689847204609
:1017280038BD00BF4C02022070B50546074C204664
:1017380001F0F8FC30B1A368294620461B68BDE8D3
:10174800704018476FF0120070BD00BF7833000872
:10175800F7B50C4611461E464768B1F5001F0269E9
:1017680023D104F00303374904339A000F2393402D
:1017780043EA9403DAB2023251F82220190C02EA41
:10178800134391FAA1F2B2FA82F2D340BA689A42AC
:1017980009D12046FFF762FE2046FFF7B3FE00217D
:1017A8002046FFF769FE00253EE0B1F5800F42D0E4
:1017B80025492046FFF794FE054600283ED1234AD6
:1017C8006B46BF6892E8030083E803001846FFF7FA
:1017D800ABFFC0B904F0030104318B000F2199401D
:1017E80041EA9401CAB20B0C920093FAA3F302F1F6
:1017F8008042B3FA83F302F59C329F40906820EA56
:1018080011410F439760B6F1806F10D0B6F1C06FE9
:101818000FD0B6F1007F14BF002102212046FFF748
:101828002BFE2046FFF70CFE284603B0F0BD012131
:10183800F4E70321F2E76FF08505F5E76FF00F0590
:10184800F2E700BF003801404D2F0008E0380008DB
:101858002DE9F341456806460769344C05F104084B
:101868007C60204601F05EFC00285AD0A368204620
:1018780041461B6898470446002852D1014601AAF0
:10188800A86901F036FC00284DDB019B2246197936
:10189800186800F0E5F9002845DB2B681A6822F083
:1018A80001021A601A6842F00C021A602A69022AB8
:1018B8002DD0012A30D020461A68044322F08052E5
:1018C80022F4B05214431C605A6822F440525A6001
:1018D8002B7B2BB173681A68936843F44073936049
:1018E8003968304601F06DFB2A7D2B681AB19A6879
:1018F80042F008029A601A6842F001021A60DA6936
:101908009102FCD5DA695202FCD500200BE04FF4B5
:1019180080544FF48060CFE74FF480544FF4C06098
:10192800CAE76FF0040002B0BDE8F0817833000820
:101938002DE9F0470B790C464568012B06691CD048
:10194800022B0CBF4FF480684FF0000894F8059004
:10195800A779B9F1020F96BF4B4A4FF4005132F8FC
:101968001910022F0CD0042F00F08880002B14BF10
:101978004FF4805E4FF0000E08E04FF4C068E5E7D2
:10198800002B0CBF4FF0805E4FF0000EE279A3F100
:10199800030A012A14BF4FF0000C4FF4407CBAF13F
:1019A800010F6ED90BB1042F6BD019F0FD0F68D061
:1019B800012F66D9042F64D02B6802B3334FBB4282
:1019C8001BD0A7F54C47BB4217D007F58067BB4231
:1019D80013D007F58067BB420FD007F58067BB427D
:1019E8000BD007F54447BB4207D0A7F51C47BB42BD
:1019F80003D007F58067BB4243D1012A41D11A6859
:101A080022F001021A601A6802F4C062904505D0FB
:101A18001A6822F4C06242EA08021A605A6802F49C
:101A28004052914204D05F6827F440570F435F60EB
:101A38001A6802F01022964505D0196821F0102185
:101A480041EA0E0119609A6802F44072944505D083
:101A58009A6822F4407242EA0C029A60216833685C
:101A6800994203D001F0ADFA236833602A68002058
:101A7800136843F001031360BDE8F0874FF4805EFC
:101A880084E76FF08500F7E7F43A0008001001409A
:101A98004FF0E0239A691969986911F4803F094B5E
:101AA800094910B501D1824206D21A680C6822444D
:101AB8001A604FF0E02212691B680A681344181A6A
:101AC80010BD00BF0C03022008030220094B10229E
:101AD800002083F8232041F61F42074B1A60074B6A
:101AE80018604FF0E0235A6198611A6942F00702C2
:101AF8001A61704700ED00E0080302200C03022081
:101B080008B5FFF7C5FF0C4B0C4A18681168084464
:101B18004FF4E151106000221A60094A1368C01A94
:101B2800B0FBF1F001FB0033136000F0FDFEBDE8EF
:101B38000840FFF75DBA00BF0C030220040302202F
:101B480000030220F8B5324C59B1421C09D14FF0BC
:101B5800E022136923F0010313614FF07F432360F0
:101B6800F8BD431C266823D0012824DD40F619134C
:101B7800984222DC471E4FF01003EFF3118583F3E0
:101B88001288BFF36F8FFFF783FF4FF0E0232149DF
:101B98000022D3F818C00B6818441F4B1A601F4B5B
:101BA80008601A68831A0AD54FF48063236019E025
:101BB80040F61910DEE70027DDE71F46DBE74FF4A4
:101BC800E15E121A0EFB073303F5E0531F33B3FB34
:101BD800FEF30EFB0323B3F5806FE5D9104A934259
:101BE800E4D922604FF0E02224689369013C9C45C7
:101BF80054614FF0000438BFB4449461ACEB030C5B
:101C08006044086085F31188BFF36F8FA8E700BFB1
:101C180008030220040302200C0302200003022010
:101C280020DFFF0010B54FF01003EFF3118483F3AA
:101C38001288BFF36F8FFFF72BFF074B074A1B680C
:101C480012689B1A034484F31188BFF36F8F4FF413
:101C5800E150B3FBF0F010BD0403022000030220A2
:101C68002DE9F047044600EBC10600251A4FB4429F
:101C780001D1002014E02068C30600F01F0911D428
:101C8800656845F02005C0F3471AC0F343200A28C9
:101C98001ED857F82080B8F1000F08D16FF0120055
:101CA800BDE8F087B9F1100F08BF3025EBE74046D3
:101CB80001F038FA0028F1D04B462A460AF00F0105
:101CC800404601F052F9002804F10804CFDAE7E7AA
:101CD8006FF01500E4E700BFB03A0008084B196838
:101CE8001A6801F000711B6802F000520A4314BF21
:101CF8000120002013F0006F18BF0120704700BFBB
:101D08000038024070B3334B1A681B6802F4404233
:101D1800B2F5404F28D102F10F6213F4803302F577
:101D28008C5243D02C4B98428CBF072306239042F9
:101D380002D82A4A904246D9294A904202D9012B10
:101D480038BF012327490A6822F00F021A430A60A4
:101D58000A6802F00F02934226D00A6802F00F02C6
:101D6800934221D00120704703F44043B3F5004F5C
:101D780005D103F10F6303F5A34398420ED8174B1F
:101D880098420DD8184B98420CD8184B984218D83E
:101D9800134B984294BF00230123D3E70523D1E7CF
:101DA8000423CFE70323CDE7002070479042F5D8FE
:101DB8000A4A9042F4D80C4A9042F3D80B4A90420F
:101DC800BAD90223BEE7084A9042B8D8074A9042D7
:101DD800B2D9B4E7007000408058840C000E270781
:101DE80080C3C901003C0240804A5D050087930317
:101DF8000B68214AC3F3031370B5D35C0D461F4E1D
:101E080020FA03F43368A34227D31D4B1A6842F023
:101E180080721A601A689201FCD59A68296822F0C3
:101E2800F0020A439A609A6822F0030242F0020222
:101E38009A60134B9A6802F00C02082AFAD19A6841
:101E48000020696822F4E0520A439A609A68A968F7
:101E580022F460420A439A6004E02046FFF752FFEA
:101E68000028D2D03368A34202D92046FFF74AFFA0
:101E780000B9346070BD00BFA23B000830000220EA
:101E880000380240F8B506460F4614461D46FFF7CF
:101E980025FF002834D12168D4F804C001F03F039D
:101EA800CCF30800B6FBF3F606FB00F3A668154C66
:101EB800300C01304000B3FBF0F023689A030FD4D4
:101EC8002368012F0F4A0CBF43F4802323F4802397
:101ED8002360236843F48033236013689B03FCD595
:101EE800084B094A5C68224042EA8C120A43294698
:101EF800324342F480025A60BDE8F840FFF778BFE9
:101F08000120F8BD003802400080BCFF0E4B70B5C0
:101F180053F82040013053F82060A64200D870BD25
:101F2800D4E900352846984765B1EB6830B10028F8
:101F3800B8BF4042FF28A8BFFF2018705A7842F067
:101F480001025A700834E8E7DC3A0008012202204E
:101F580008B5094B1A70FFF7D9FF00F059FD0320A7
:101F6800FFF7D4FF00F0F0F800F096FD034A137B6A
:101F780023F00103137308BD45030220F800022073
:101F880006480021064A08B5121A01F0FCF805486F
:101F9800054A0021121A01F0F6F808BD780002205F
:101FA80048030220000000200000002070B5002334
:101FB80086B00122144E01930446144D06EBC01658
:101FC8001349CDE904230F22CDE9023218234FF437
:101FD800A07203FB00554FF4B0700E4B00FB0411C8
:101FE8003046009500F07EF8737B0B4823F004031D
:101FF8002C75EE6073734FF4026303FB04041C44F6
:102008006C6006B070BD00BF78000220100302208B
:102018008007022097310008E008022080B52A4B8B
:10202800A6B083F308880024284DF023284E294FB2
:1020380085F82230EC772C766C76AC7685F82040E3
:102048006B6A43F4E0236B62FFF7C8F8FEF7C4FE3F
:102058004FF0FF33AB62EB62FFF79CF91E4DFFF7C1
:1020680003F940F201132294ADF8243006ABB360B3
:10207800CDE91F4401F055F82046FFF747FF01203E
:10208800FFF744FF00F062FA144BB5614FF4806229
:1020980005930123124928460094CDE90343CDE96D
:1020A80001443B4600F01EF86A7B0646284622F0AB
:1020B80004026A7301F0A5F82046FFF777FF3A4655
:1020C80031462846FEF76AFF0011022000ED00E0C5
:1020D80010030220551F0008F8000220B23B000838
:1020E800600302202DE9FF410E9E00F158050F46BE
:1020F800044606730426203746730D9E8673D61D44
:102108000C9A26F00706C0E91655002506F12008A6
:1021180085608844C573C566C0E90655C0E9197667
:1021280002920B9A01920A9A00924246FEF70AFF1F
:10213800044B65659B6803B11B6F4046236704B079
:10214800BDE8F08110030220F0B5214C87B0214D85
:1021580026463034AE420BD31D4C0A261E4F00F0E3
:102168008BF8AC4220D307B0BDE8F04000F0D2B9FC
:1021780054F8043C059354F8103C049354F8143C68
:10218800039354F8183C029354F81C3C019354F8F8
:10219800203C54E90C01009354E90A23FFF7A2FFFD
:1021A80054F8303C5E65D3E7626A531C09D022EAD2
:1021B800E272206882FB062352EA030103D100F091
:1021C80041F93034CDE73946183000F033FBF8E7F1
:1021D80078000220780002202B32000838B5074D1D
:1021E8002C6854B1FFF71EFD054B044400212868F4
:1021F8001C61BDE8384001F04CB838BD3C030220F2
:102208001003022010B54FF01003EFF3118483F38D
:102218001288BFF36F8F00230B4A002813614FF019
:102228000A0300FB03F309480ADC0360084B9068C3
:102238001960FFF7D3FF84F31188BFF36F8F10BDC8
:10224800022BB8BF0223F0E7100302203C03022050
:102258003803022049B9EFF3058030B9054B9A6974
:102268009B689A4201D0FEF719BE81F31188BFF32B
:102278006F8F7047100302204FF01003EFF31181A6
:1022880083F31288BFF36F8F044B9A68D37B013BAB
:10229800D37381F31188BFF36F8F70471003022047
:1022A80038B502460C4800F0A6FF0C4D044600B9AC
:1022B800EC68AB684AB95A7BD20606D1A26922B942
:1022C800DA897F2A01D9AB6138BD9C4202D0204609
:1022D800FFF784FFAC61F7E72C030220100302200C
:1022E80070B590F90D200146437B002A04DA03F00B
:1022F8007F03437300F057FF4B7B154A63F07F035E
:1023080002F11C054B73D2E90734AB421BD0D3B1A1
:1023180091F90E6093F90E0086420FD0801B0028B9
:102328000CDD5868C1E90030016059609068431AB3
:102338005842BDE870405841FFF7B2BFA34202D0EF
:102348001B68002BE6D1C1E9005421601162EDE75A
:102358001003022038B54FF01003EFF3118583F313
:102368001288BFF36F8F174B174A9C6811688C420D
:1023780007D12046FFF732FF85F31188BFF36F8F2F
:1023880038BD00211160114A1268C2B1E2897F2A62
:1023980015D8627BD20612D10D4A94F90E10126834
:1023A80091420CDB0B4A944209D01A69824203DC41
:1023B8002046FFF795FFDCE7121A1A61DCE70022D6
:1023C800FBE700BF10030220340302203C03022075
:1023D800380302207800022070B490F90D20437B66
:1023E800002A2ADBDA0628D1826932BB63F07F0330
:1023F800134A437302F11C05D2E90734AB4217D0E4
:10240800B3B190F90E6093F90E108E420BD0891B70
:10241800002908DD5A68C0E90032106058600020C1
:1024280070BCFFF73DBFA34202D01B68002BEAD166
:10243800C0E9005420601062F1E770BC704700BF2B
:102448001003022010B54FF01002EFF3118482F34D
:102458001288BFF36F8F427B510704D484F311882D
:10246800BFF36F8F10BD22F004024273FFF7B4FF71
:1024780021460248BDE81040FFF7ECBE46030220A3
:1024880008B590F90D200146437B002A04DA03F0D1
:102498007F03437300F087FE044B9868431A584241
:1024A8005841BDE80840FFF7FBBE00BF10030220FB
:1024B80070B50446183000F0D6FE4FF01003EFF365
:1024C800118683F31288BFF36F8F94F90D20637B15
:1024D800002A05DA03F07F032046637300F063FEE9
:1024E800637B0B4D43F01003A8686373031B5842CA
:1024F8005841FFF7D5FE86F31188BFF36F8FAB689D
:10250800A34203D1BDE8704000F06BBE70BD00BFB0
:102518001003022010B54FF01003EFF3118483F37A
:102528001288BFF36F8F084B00209A68D37B013362
:10253800D373FFF7B5FE84F31188BFF36F8FBDE83F
:10254800104000F04EBE00BF10030220044B0021D3
:1025580003F11C020846C3E90722FFF753BE00BF78
:1025680010030220F8B54FF01003EFF3118583F341
:102578001288BFF36F8F1A498868437B03F07F0383
:10258800437300F010FE8B6808465A7B62F07F02A6
:102598005A7350F81C2F82421CD0DAB10F6A93F993
:1025A8000E6092F90E40A6420FD0A41B002C0CDD41
:1025B8005168C3E900210B6053600120FFF770FEEA
:1025C8002846BDE8F840FEF769BCBA4202D0126856
:1025D800002AE6D10A6AC3E9000213600B62ECE73D
:1025E8001003022050EA01032DE9F04105460E468A
:1025F80003D1FFF7B7FF002033E06FF001044FF07D
:10260800FF33241A63EB0103012C73F1000302DA90
:1026180000F059FE44194FF01003EFF3118883F3CB
:102628001288BFF36F8F104F104BB8681860FFF710
:1026380027FFB8682A460E493346183000F0FAF8E2
:10264800BA684046537B43F010035373FEF726FCE9
:1026580000F039FE201A63EB0303012873F100032D
:10266800C9DBBDE8F08100BF10030220340302205B
:102678002B320008B1F1FF3F08BFB0F1FF3F08B5AA
:1026880006D1074B9868FFF713FF4FF0FF3008BDDE
:10269800FFF7A8FF0A220023C117FDF7A9FDF6E7F7
:1026A80010030220014B9868704700BF10030220F6
:1026B8002DE9F04104464FF01003EFF3118683F340
:1026C8001288BFF36F8F437B1A0705D586F31188ED
:1026D800BFF36F8FBDE8F08123F0200242F00801BC
:1026E800D20920D14173A36813B1204600F063FDDD
:1026F80004F158074FF0000804F1180000F0B3FD8A
:10270800A56DBD4200D0B5B90120FFF7C9FD104B3A
:102718009B68A342DAD1EFF30583002BD6D130466C
:10272800FEF7BCFBD2E703F05F0343F008034373F3
:1027380000F039FDD7E7284600F03DFD05F1180007
:1027480000F091FD2846C5F87880FFF745FED7E7E9
:102758001003022009480A4A0A49121A08B500F06B
:1027680014FD094A09490A4800F00FFD09480A4AB8
:102778000A49121ABDE8084000F007BD000002200F
:1027880078000220003C000800000000003C00081F
:10279800000002200000002000000020783C000813
:1027A800034B1B680BB9FFF73DBA0020704700BF09
:1027B80040030220104B10B51C689C4208BF00243F
:1027C800FFF7EEFFA4B1D4E904321B1A62EBE07004
:1027D800B3F1004F70F100020ADA0028ACBF1846C6
:1027E8000020064B1B6913B19842A8BF184610BDBC
:1027F8006FF00040F5E700BF34000220100302200C
:10280800036830B568B10A4A5268904209D043B1AA
:10281800D3E90421D0E90445121941EB0501C3E9C4
:102828000421426813605A600023C0E9003330BDB8
:1028380034000220B3F1FF3F08BFB2F1FF3FF8B503
:1028480004461F46154667D081604FF01003EFF32A
:10285800118683F31288BFF36F8F6FF001024FF078
:10286800FF3C531B6CEB0703002B1BDB2B4BD3E903
:102878000013521A6CEB0303551B63EB0703012D7E
:1028880073F10002BCBF01250023C0E904532448AA
:10289800D0E9003C834218D1C4E9000CCCF80040D0
:1028A800446026E0FFF77CFF013547F100072D184B
:1028B80047EBE077C4E90457E9E7521A65EB0705E7
:1028C8009C45C4E90425E7D01B68002BE4D0D3E974
:1028D8000417D4E904258A4275EB070EEDDA8A1A43
:1028E80067EB0505C3E904255A68C4E9003214609A
:1028F8005C60036883420BD09C4209D1FFF75AFF02
:1029080018B1084B1B69834202D00021FFF71AF95E
:1029180086F31188BFF36F8FF8BD00BF78010220DE
:1029280034000220100302202DE9F8430546FFF782
:1029380011FD4FF01003EFF3118483F31288BFF3F6
:102948006F8F244EDFF890803560244DD8F8000052
:10295800326840454FEAE277D5E9001E0BD050B106
:10296800D0E9043C9A4277EB0C0916DA9B1A6CEB17
:10297800070CC0E9043C52184EEB0707C5E90027CD
:1029880000253560FFF716FF2946FFF7DBF884F3CB
:102998001188BFF36F8FBDE8F88359184EEBE377C2
:1029A800D31A002233600023C0E90423C5E90017C5
:1029B800FFF726FF84F31188BFF36F8F836898476A
:1029C8004FF01003EFF3118483F31288BFF36F8F76
:1029D800BCE700BF40030220340002207801022037
:1029E80010B54FF01003EFF3118483F31288BFF38F
:1029F8006F8FFFF717F9054AD2E90031C01841F186
:102A0800000184F31188BFF36F8F10BD7801022095
:102A1800024A0349034800F047B800BFFE3B0008DC
:102A2800B73B0008D83B0008704703460A460068D1
:102A38001979012303FA01F103691B68194218BFC8
:102A480082F0010212B18368DB68184783681B694A
:102A5800FBE70346012100681B79994083685B699D
:102A6800184703460068F0B41979DB88DA07066965
:102A78004FF00105876854BF43F4D01383F4B013B3
:102A880034688D4023F48012DB073B684CBF2C432D
:102A9800AC433460F0BC184708B5FDF717FDFDF7E7
:102AA80043FDFCE7002070470FB407B504A951F8AF
:102AB800040B0191FDF75EFD03B05DF804EB04B073
:102AC80070470446084611461A4608B5A047FFF75E
:102AD800E9FDFEF7B7FB2DE9F84F9A46D378804613
:102AE8000F466F2B1546A3F1410B29D024D8582B3C
:102AF80014BF0A261026DDF82890324600234046E7
:102B08003946FDF775FB092AD4B21ED83034B045D2
:102B1800E4B277F1000309F8014D01D3D14511D88A
:102B28002B789B0605D5082E15D1AB7843F0080302
:102B3800AB704846BDE8F88F03F0F703702BD7E772
:102B48000826D8E780460F46D7E7BBF1190F94BF90
:102B580037345734DBE7102EEBD1AB7843F0100352
:102B6800E6E72DE9F0410746884615461E46144615
:102B7800B442A4EB050002D33EB923782BB14146F9
:102B880014F8010BB8470028F2DABDE8F081704765
:102B98000020704700F0DCBA0146006800F0D8BA9F
:102BA80000210120FFF7F6BF08B5FEF74FF9BDE891
:102BB8000840FEF71DBA034600201A5C02B97047A8
:102BC8000130FAE7034600201A5C0AB1884200D1B6
:102BD80070470130F8E7431E0A4410B5914200D10E
:102BE80010BD11F8014B03F8014FF7E7C9B20244D1
:102BF8000346934200D1704703F8011BF9E74FF0F1
:102C0800FF3070470022062008B51146FEF708F984
:102C1800002207201146FEF703F90022082011467A
:102C2800FEF7FEF8002209201146FEF7F9F8002207
:102C38000A201146FEF7F4F8002217201146FEF785
:102C4800EFF8002228201146FEF7EAF800220120BA
:102C58001146FEF7E5F800222A201146FEF7E0F8B3
:102C6800002202201146FEF7DBF80022032011465D
:102C7800FEF7D6F800225D201146FEF7D1F80020B5
:102C880008BD026918211720FEF7BABB026917218F
:102C98001620FEF7B5BB026916211520FEF7B0BB5A
:102CA800026913211220FEF7ABBB02691121102023
:102CB800FEF7A6BB026910210A20FEF7A1BB026934
:102CC8000A210520FEF79CBB026905210420FEF7B6
:102CD80097BB026904210320FEF792BB0269032116
:102CE8000220FEF78DBB026902210120FEF788BB96
:102CF800026901210020FEF783BB48230422C0E9B2
:102D080000230023836070477047436800205B6896
:102D18001B690B60704743685B68586942400A400A
:102D2800424000205A617047436800205B689961FF
:102D380070474368090400205B68996170474368DD
:102D480000205A6853694B4053617047036998687B
:102D580030B558B10024814212D10868DD6854B9F1
:102D68008D42986000D1D860002008606AB90020C0
:102D780030BD2846EFE78D42206008BFDC60F3E7EE
:102D880005680446002DF4D13AB19A68D8680A60FB
:102D980099600028EBD1D960EAE76FF01500E7E702
:102DA80008B50369586040680C30FEF7BDFC00EABE
:102DB800E07008BDF0B544680120C2F380164FF0FA
:102DC800030E676888408E4002F0300527EA000746
:102DD800202D46EA070690FAA0F7B7FA87F766604B
:102DE800D4F808C0C2F3C1164FEA4707C2F341221C
:102DF8000EFA07F72CEA070C90FAA0F7B7FA87F74C
:102E08004FEA470706FA07F646EA0C06A66090FA64
:102E1800A0F6B6FA86F6E7684FEA46060EFA06F610
:102E280027EA060790FAA0F6B6FA86F64FEA4606AB
:102E380002FA06F242EA0702E26015D107292BDC02
:102E4800216A90FAA0F22AB3B2FA82F292000F260F
:102E580006FA02F221EA020190FAA0F2B2FA82F22C
:102E6800920093400B43236290FAA0F3B3FA83F3E2
:102E7800032190FAA0F05B00B0FA80F022682D09D7
:102E880001FA03F3400022EA030305FA00F01843AD
:102E98002060F0BD2A46D9E7020A666A92FAA2F1D2
:102EA80081B1B1FA81F189000F2792FAA2F2B2FA40
:102EB80082F207FA01F1920026EA010193400B43DE
:102EC8006362D1E72946EEE738B50D46910304461B
:102ED800134619D59A0710D5580730D55022D90668
:102EE8000DD542F4007219031ED4580315D50121DB
:102EF8002046A940FFF71DFF0FE01022EFE79806D4
:102F0800F1D542F48062EEE7D10313D5DA0613D483
:102F180013F0200218BF4FF480626068002329462E
:102F2800FFF748FF002038BD616801234968AB40BE
:102F38008B61F2E73022F0E74FF40072EDE76FF0B3
:102F48008500F0E70B46896870B569B101255E68B0
:102F58000C6885408A682A4002D04B6830469847FA
:102F680014B121462468F5E770BD406808B5FFF73D
:102F780021FF002008BD43681B68D869DA69C0F3DF
:102F8800C000D107DA6948BF40F002009207DA6949
:102F980048BF40F00400D10504D54FF4807240F0DA
:102FA80008001A62C20701D508221A62810701D5F2
:102FB80001221A62420701D502221A6204221A6209
:102FC8007047F7B503690C4646685D68371D2846A3
:102FD80000F0A8F8A0B1AB68DB688BB101AA39464C
:102FE8002846984700280BDB3268136823F400430F
:102FF8001360019B03EB5403B3FBF4F39BB2D36060
:1030080003B0F0BD406810B50268D3691B06FCD553
:103018004FF01002EFF3118382F31288BFF36F8F22
:103028000268D469240604D483F31188BFF36F8F30
:10303800EAE7916283F31188BFF36F8F10BD43688D
:103048001B68DA69100701D508221A62DA69920644
:1030580003D55B6A00200B7070474FF0FF30704754
:1030680003691B680B6043681A68136803F4C0633C
:10307800B3F5806F2DD0A3F5C060434243410B7177
:10308800536803F44053B3F5805F24D0B3F5405F31
:1030980023D0002B14BF032301234B71106813683E
:1030A80000F0102003F4C063B0F5805F17D0B0F1D2
:1030B800805F19D1002B0CBF022301238B710020E4
:1030C800936803F44073A3F5407253425341CB71A4
:1030D80070470223D3E70023DFE70223DDE7002B55
:1030E80014BF03230423E9E7002B14BF022303239F
:1030F800E4E7036830B51360037903F10053013B3B
:10310800DB00056814681D44AC4202D96FF0010069
:1031180030BD65798D4202D008341460F1E7002093
:10312800F6E7704738B1C3681888C0F30800A0F5FF
:1031380080735842584170474FF01002EFF31183E3
:1031480082F31288BFF36F8FFEE708B5FFF7F4FF2D
:10315800F8B505460E464FF01003EFF3118783F3D9
:103168001288BFF36F8FFFF79DFA31460446284651
:10317800FFF7EBFF87F31188BFF36F8F2046BDE899
:10318800F840FEF75FB8FFF731BDFFF724BD08B57B
:103198004FF01002EFF3118382F31288BFF36F8FA1
:1031A800FDF720FEF4E7D0E9003213605A600023EF
:1031B800C0E90033704708B5FFF7F5FF437B23F0FC
:1031C800020343730023836008BD034620B9EFF36D
:1031D80005820AB9FDF762BE83F31188BFF36F8FCA
:1031E80070474FF01003EFF3118083F31288BFF399
:1031F8006F8FFFF7EABF03460068834208BF0020CD
:10320800704710B54FF01003EFF3118483F3128861
:10321800BFF36F8FFFF7E0F884F31188BFF36F8F68
:1032280010BD014610B54FF01003EFF3118483F37E
:103238001288BFF36F8F10F80B3C13F0280F0DD1D5
:1032480051F8103C18380BB1FFF7B5FF11F80B3CDB
:1032580023F0140301F80B3CFFF7BEF884F3118840
:10326800BFF36F8F10BD10B54FF01002EFF311844C
:1032780082F31288BFF36F8F03683BB1FFF7C0FA80
:10328800002084F31188BFF36F8F10BD6FF0150015
:10329800F7E770B504460D464FF01003EFF31186BB
:1032A80083F31288BFF36F8FFFF784FA012805DDD7
:1032B800A04203DB29462046FEF744FC86F311882A
:0E32C800BFF36F8F70BD08B5FFF78AFB08BD1E
:0232D600FFFFF8
:0832D80054CFFF7F010000004C
:1032E0001D0D000800000000992B000800000000E0
:1032F00035160008783300080D2C000890330008BC
:10330000A92D0008A8330008A92D0008C033000823
:10331000A92D0008D8330008A92D0008F0330008B3
:10332000A92D000808340008A92D00082034000841
:10333000A92D000838340008A92D000850340008D1
:10334000A92D000868340008A92D00088034000861
:10335000A92D00089834000859180008B034000856
:1033600059180008C8340008D916000800000000E9
:08337000D51A0008000000005E
:10337800453B000800000000080002204000022031
:1033880000000000BE3800080F3B000800000000E5
:10339800000000003C0002208C010220B838000820
:1033A800523B0008EC390008003A000844000220AB
:1033B800F0020220B0380008583B0008D83900084D
:1033C800003A000848000220E0020220A83800085D
:1033D8005E3B0008C4390008003A00084C0002208F
:1033E800D0020220A0380008643B0008B039000869
:1033F800003A000850000220C00202209838000855
:103408006A3B00089C390008003A00085400022072
:10341800B002022090380008703B00088839000884
:10342800003A000858000220A0020220883800084C
:10343800763B000874390008003A00085C00022056
:1034480090020220803800087C3B000860390008A0
:10345800003A000860000220800202207838000844
:10346800823B00084C390008003A0008640002203A
:103478007002022070380008883B000838390008BC
:10348800003A00086800022060020220683800083C
:103498008E3B000824390008003A00086C0002201E
:1034A8005002022060380008943B0008803A000867
:1034B8009C3A0008700002202800022058380008B2
:1034C8009B3B0008643A00089C3A000874000220FC
:0834D80020000220503800081A
:1034E00000000000A92B000890330008B32C00084E
:1034F000903300089F2C000890330008952C00089A
:1035000000000000A92B000800000000A92B000803
:1035100090330008F92C000890330008EF2C0008C5
:1035200090330008E52C000890330008DB2C0008DD
:1035300090330008D12C000800000000A92B0008DF
:1035400000000000A92B000800000000A92B0008C3
:1035500000000000A92B000800000000A92B0008B3
:1035600000000000A92B000800000000A92B0008A3
:1035700000000000A92B000800000000A92B000893
:1035800000000000A92B000800000000A92B000883
:1035900000000000A92B000890330008C72C000889
:1035A00000000000A92B000800000000A92B000863
:1035B00000000000A92B000800000000A92B000853
:1035C00000000000A92B000800000000A92B000843
:1035D00000000000A92B000800000000A92B000833
:1035E00000000000A92B000800000000A92B000823
:1035F00000000000A92B000800000000A92B000813
:1036000000000000A92B000800000000A92B000802
:1036100000000000A92B000800000000A92B0008F2
:1036200090330008BD2C000800000000A92B000802
:1036300090330008A92C000800000000A92B000806
:1036400000000000A92B000800000000A92B0008C2
:1036500000000000A92B000800000000A92B0008B2
:1036600000000000A92B000800000000A92B0008A2
:1036700000000000A92B000800000000A92B000892
:1036800000000000A92B000800000000A92B000882
:1036900000000000A92B000800000000A92B000872
:1036A00000000000A92B000800000000A92B000862
:1036B00000000000A92B000800000000A92B000852
:1036C00000000000A92B000800000000A92B000842
:1036D00000000000A92B000800000000A92B000832
:1036E00000000000A92B000800000000A92B000822
:1036F00000000000A92B000800000000A92B000812
:1037000000000000A92B000800000000A92B000801
:1037100000000000A92B000800000000A92B0008F1
:1037200000000000A92B000800000000A92B0008E1
:1037300000000000A92B000800000000A92B0008D1
:1037400000000000A92B000800000000A92B0008C1
:1037500000000000A92B000800000000A92B0008B1
:1037600000000000A92B000800000000A92B0008A1
:1037700000000000A92B000800000000A92B000891
:1037800000000000A92B000800000000A92B000881
:1037900000000000A92B000800000000A92B000871
:1037A00000000000A92B000800000000A92B000861
:1037B00000000000A92B000800000000A92B000851
:1037C00000000000A92B0008903300088B2C000893
:1037D00000000000A92B000800000000A92B000831
:1037E00000000000A92B000800000000A92B000821
:1037F00000000000A92B000800000000A92B000811
:1038000000000000A92B000800000000A92B000800
:1038100000000000A92B000800000000A92B0008F0
:1038200000000000A92B000800000000A92B0008E0
:1038300000000000A92B000800000000A92B0008D0
:1038400000000000A92B000800000000A92B0008C0
:10385000010000800080FF7F010000800080FF7F6A
:10386000010000800080FF7F010000800080FF7F5A
:10387000010000800080FF7F010000800080FF7F4A
:10388000010000800080FF7F010000800080FF7F3A
:10389000010000800080FF7F010000800080FF7F2A
:1038A000010000800080FF7F010000800080FF7F1A
:1038B000010000800080FF7F00800080FF7F00808B
:1038C00000800C000D000300040005000E0006003F
:0E38D0000700080009000F000A000B00FF7F30
:0238DE00FFFFEA
:1038E00003000000004000008034000807000000D2
:1038F000803400080E0000000000022000000000DC
:1039000000000B06020000000C390008000000084F
:10391000003B00082800020700000220083B0008C6
:1039200024000B11FFFF0000000002400000000017
:103930000000000001000000FFFF00000004024042
:10394000010000000000000002000000FFFF000076
:103950000008024002000000000000000400000017
:10396000FFFF0000000C0240030000000000000008
:1039700008000000FFFF00000010024004000000EB
:103980000000000010000000FFFF000000140240D3
:10399000050000000000000020000000FFFF000004
:1039A0000018024006000000000000004000000077
:1039B000FFFF0000001C02400700000000000000A4
:1039C00080000000FFFF000000200240080000000F
:1039D0000000000000010000FFFF00000024024082
:1039E000090000000000000000020000FFFF0000CE
:1039F000002802400A00000000000000000400004F
:103A0000D12E0008132D00081F2D0008312D0008AD
:103A10003B2D0008472D000859170008552D0008B8
:103A200000000000543A0008010000005C3A000861
:103A30000100000007070000000200002707000047
:103A400000000000C80D000000020000280D00006A
:103A500000000000343A000802000000443A000868
:103A600002000000004800400200000000000400C6
:103A7000000000000000000000000000243A0008E0
:103A800000140140030000002000000000000000BE
:103A900000000000000000002C3A00084730000839
:103AA0000D3000087F2F0008391900086930000820
:103AB0009834000880340008683400085034000846
:103AC000383400082034000808340008F0330008B7
:103AD000D8330008C0330008A8330008E0320008DB
:103AE0007033000878330008783300087833000812
:103AF000F5FFFFFF001000000030286E696C290000
:103B0000464C4153485F30005352414D5F3000698D
:103B10006E746572727570742D636F6E74726F6CF3
:103B20006C65724034303031336330300006070842
:103B3000090A171717171728282828282801FF2AE5
:103B4000FFFF02035D72636340343030323338303C
:103B500030004750494F4B004750494F4A004750AB
:103B6000494F49004750494F48004750494F470087
:103B70004750494F46004750494F45004750494F2D
:103B800044004750494F43004750494F4200475077
:103B9000494F4100554152545F3600554152545FE0
:103BA00033000000000000000000010203040607CB
:103BB00008096D61696E007A65706879722D7633D7
:103BC0002E302E302D313231322D67613562333354
:103BD00066383962373239002A2A2A20426F6F74D8
:103BE000696E67205A6570687972204F532062753C
:103BF000696C64202573202573202A2A2A0A000074
:103C0000AD2A0008072C000821150008A915000896
:103C1000000000000D160008000000000000000079
:103C200000C201000000000000C20100000000000E
:0C3C30000024F4003400022034000220C4
:103C3C000000000000000000000000000000000078
:103C4C000000000000000000000000000000000068
:103C5C000000000000000000000000000000000058
:0C3C6C000000000000000000000000004C
:0400000508001221BC
:00000001FF
